

Microchip MPLAB XC8 Assembler V2.40 build 20220703182018 
                                                                                                           Thu Apr 20 20:41:26 2023


     1                           	processor	10F322
     2                           	pagewidth 132
     3                           	psect	udata,global,class=RAM,space=1,delta=1,noexec
     4                           	psect	udata_bank0,global,class=BANK0,space=1,delta=1,noexec
     5                           	psect	code,global,class=CODE,delta=2
     6                           	psect	data,global,class=STRCODE,delta=2,noexec
     7                           	psect	Isr_data,global,class=RAM,space=1,delta=1,noexec
     8                           	psect	Reset_Vec,global,class=CODE,delta=2
     9                           	psect	ISR_Vec,global,class=CODE,delta=2
    10                           	psect	config,global,abs,ovrld,class=CONFIG,space=4,delta=2,noexec
    11                           
    12                           ; This include file pulls in the proper definitions for the registers for our processor
    13     0080                     
    14                           	psect	udata_bank0
    15     0040                     FirstByte:	
    16                           ; This PSECT command specifies that we want to locate our variables in Bank0
    17                           ; We make them GLOBAL to help the debugger find them, that's all
    18                           
    19     0040                     	ds	1
    20     0041                     SecondByte:
    21     0041                     	ds	1
    22     0042                     TXReg:
    23     0042                     	ds	1
    24     0043                     RXReg:
    25     0043                     	ds	1
    26     0044                     Index:
    27     0044                     	ds	1
    28     0045                     STATUS_ISR:
    29     0045                     	ds	1
    30                           
    31                           	psect	data
    32     0000                     stk_offset	set	0
    33     0000                     auto_size	set	0
    34                           
    35                           ; stack_auto defines a symbol /name/_offset which equates to the
    36                           ; stack offset of the auto object in question
    37     0000                     
    38                           ; stack_param defines a symbol /name/_offset which equates to the
    39                           ; stack offset of the parameter object in question
    40     0000                     
    41                           ; alloc_stack adjusts the SP to allocate space for auto objects
    42                           ; it also links in to the btemp symbol so that can be used
    43     0000                     
    44                           ; restore_stack adjusts the SP to remove all auto and parameter
    45                           ; objects from the stack prior to returning from a function
    46     0000                     
    47                           ; as an example of a macro definition, here is a reproduction of the pageselw
    48                           ; macro that was included in the old assembler.
    49     0000                     
    50                           	psect	Isr_data
    51     007E                     WREG_save:	
    52                           ;
    53                           ; Data space used by interrupt handler to save context is
    54                           ; placed at the top of bank 0 for upward compatibility
    55                           ;
    56                           ;
    57                           
    58     007E                     	ds	1
    59     007F                     STATUS_save:
    60     007F                     	ds	1
    61                           
    62                           	psect	Reset_Vec
    63     0000                     ResetVector:	
    64                           ; This PSECT command is used to locate our code. The actual address is specifed
    65                           ; in the project properties box "pic-as Global Options -> Additional options"
    66                           ; Be sure to add this line there :
    67                           ; -Wa,-a -Wl,-DCODE=2,-pReset_Vec=00h,-pISR_Vec=04h,-pIsr_data=07eh,-Map=test.map
    68                           ; The GLOBAL declaration is not strictly necessary in a single module program.
    69                           
    70     0000  2827               	goto	Main
    71                           
    72                           	psect	ISR_Vec
    73     0004                     ISR_Vector:	
    74                           ; This PSECT places the ISR handler at the ISR_Vec address in the additional
    75                           ; options line shown earlier. For our processor this needs to be at address 04h
    76                           
    77                           
    78                           ; start off by saving the context
    79     0004  00FE               	movwf	WREG_save
    80     0005  0E03               	swapf	3,w
    81     0006  00FF               	movwf	STATUS_save
    82     0007                     IsrHandler:	
    83                           ;
    84                           
    85     0007                     TXInterrupt:
    86     0007  120C               	bcf	12,4	; clear the NCO flag
    87     0008  1003               	bcf	3,0	; clear carry bit by default
    88     0009  1845               	btfsc	STATUS_ISR,0	; check if stored carry bit is 0
    89     000A  1403               	bsf	3,0	; set carry bit if not 0
    90                           
    91                           ;swapf STATUS_ISR, W ; swap status isr, store in w
    92                           ;movwf STATUS ; w -> status
    93     000B  1DC4               	btfss	Index,3	; check if 8 bit in index is set
    94     000C  2810               	goto	CheckTXBit	; Index < 9 -> Send bit byte[index]
    95     000D  1CC4               	btfss	Index,1	; check if 1 bit in index is set
    96     000E  2810               	goto	CheckTXBit	; Index < 9 -> Send bit byte[index]
    97     000F  2841               	goto	LoTXBit	; index = 9 -> send LO
    98     0010                     CheckTXBit:
    99     0010  0CC2               	rrf	TXReg,f	; rotate TXReg right
   100     0011  1C03               	btfss	3,0	; check carry bit
   101     0012  2841               	goto	LoTXBit	; if not high, set low
   102     0013  283F               	goto	HiTXBit	; if high, set high
   103     0014                     EndTXBit:
   104     0014  0000               	nop
   105     0015  1045               	bcf	STATUS_ISR,0	; clear stored carry bit by default
   106     0016  1803               	btfsc	3,0	; check if stored carry bit is 0
   107     0017  1445               	bsf	STATUS_ISR,0	; set carry bit if not 0
   108                           
   109                           ;swapf STATUS, W ; swap status -> w
   110                           ;movwf STATUS_ISR ; w -> status_isr
   111     0018  0BC4               	decfsz	Index,f	; decrement index file, skip next line if it's 0
   112     0019  2822               	goto	IsrExit	; if Index is not 0, exit ISR
   113     001A  281B               	goto	EndTXByte	; if Index is 0, go to EndTXByte
   114     001B                     EndTXByte:
   115                           
   116                           ; reset index and increment TXReg
   117     001B  1407               	bsf	7,0	; set ((PORTA) and 07Fh), 0 to HI for end transmission
   118     001C  300A               	movlw	10	; 9 -> w
   119     001D  00C4               	movwf	Index	; w -> Index
   120     001E  0AC2               	incf	TXReg,f	; increment TXReg
   121     001F  0000               	nop
   122     0020  01C5               	clrf	STATUS_ISR	; reset STATUS_ISR for next time
   123     0021  0000               	nop
   124     0022                     IsrExit:	
   125                           ;
   126                           
   127                           
   128                           ; now we restore the context using a funny sequence to keep from modifying the
   129                           ; status register after it has been restored.
   130                           ;swapf STATUS, W ; swap status -> w
   131                           ;movwf STATUS_ISR ; w -> status_isr
   132     0022  0E7F               	swapf	STATUS_save,w
   133     0023  0083               	movwf	3
   134     0024  0EFE               	swapf	WREG_save,f
   135     0025  0E7E               	swapf	WREG_save,w
   136     0026  0009               	retfie	; Return from interrupt
   137     0027                     BeginTables:	
   138                           ; Space for lookup tables
   139                           
   140     0027                     EndTables:	
   141                           ; look up tables go here
   142                           
   143     0027                     Main:	
   144                           ; After assembly, check the list file or map file to insure that BeginTables
   145                           ; and EndTables are on the same 256 byte 'page'. Both 0x0?? or 0x1??
   146                           ; you find the list file in YourProjectFolder.X\build\default\production
   147                           ; you find the map file (test.map) in the root of the project folder.
   148                           
   149     0027  202A               	call	Init
   150     0028  2035               	call	SetupNCO
   151     0029                     MainLoop:
   152     0029  2829               	goto	MainLoop
   153     002A                     Init:	
   154                           ;goto Loop
   155                           ; movlw (BeginTables>>8)
   156                           ; movwf PCLATH
   157                           ; you can look at the list file to see that the above 2 lines are identical
   158                           ; to those generated by the pageselw macro below
   159                           ; pageselw BeginTables
   160                           ; movlw FirstByte
   161                           ; movwf FirstByte
   162                           
   163                           
   164                           ; Set up ((PORTA) and 07Fh), 0 as digital output (TX)
   165     002A  1008               	bcf	8,0	; digital
   166     002B  1006               	bcf	6,0	; output
   167     002C  1407               	bsf	7,0	; idle high
   168                           
   169                           ; Set up ((PORTA) and 07Fh), 1 as digital input (RX)
   170     002D  1008               	bcf	8,0	; digital
   171     002E  1486               	bsf	6,1	; input
   172                           
   173                           ; set index to 9
   174     002F  300A               	movlw	10
   175     0030  00C4               	movwf	Index
   176                           
   177                           ; put A in TXReg
   178     0031  3042               	movlw	66
   179     0032  00C2               	movwf	TXReg
   180                           
   181                           ; clear the status_isr file
   182     0033  01C5               	clrf	STATUS_ISR
   183     0034  0008               	return
   184     0035                     SetupNCO:
   185     0035                     	banksel	42	; select bank 1
   186     0035  309D               	movlw	157	; F_overflow = (F_osc * inc)/2^20
   187     0036  00AA               	movwf	42	; move increment value into appropriate register low byte
   188     0037  01AB               	clrf	43	; high byte is 0
   189     0038  102E               	bcf	46,0
   190     0039  14AE               	bsf	46,1	; clock source is F_osc
   191     003A  17AD               	bsf	45,7
   192     003B  170B               	bsf	11,6	; enable peripheral interrupts
   193     003C  178B               	bsf	11,7	; enable global interrupts
   194     003D                     	banksel	13	; bank 0
   195     003D  160D               	bsf	13,4	; enable NCO1
   196     003E  0008               	return
   197     003F                     HiTXBit:
   198     003F  1407               	bsf	7,0
   199     0040  2814               	goto	EndTXBit
   200     0041                     LoTXBit:
   201     0041  1007               	bcf	7,0
   202     0042  2814               	goto	EndTXBit
   203                           
   204                           	psect	config
   205                           
   206                           ;Config register CONFIG @ 0x2007
   207                           ;	Oscillator Selection bits
   208                           ;	FOSC = INTOSC, INTOSC oscillator: CLKIN function disabled
   209                           ;	Brown-out Reset Enable
   210                           ;	BOREN = OFF, Brown-out Reset disabled
   211                           ;	Watchdog Timer Enable
   212                           ;	WDTE = OFF, WDT disabled
   213                           ;	Power-up Timer Enable bit
   214                           ;	PWRTE = ON, PWRT enabled
   215                           ;	MCLR Pin Function Select bit
   216                           ;	MCLRE = ON, MCLR pin function is MCLR
   217                           ;	Code Protection bit
   218                           ;	CP = OFF, Program memory code protection is disabled
   219                           ;	Low-Voltage Programming Enable
   220                           ;	LVP = ON, Low-voltage programming enabled
   221                           ;	Brown-out Reset Selection bits
   222                           ;	LPBOR = OFF, BOR disabled
   223                           ;	Brown-out Reset Voltage Selection
   224                           ;	BORV = LO, Brown-out Reset Voltage (Vbor), low trip point selected.
   225                           ;	Flash Memory Self-Write Protection
   226                           ;	WRT = OFF, Write protection off
   227     2007                     	org	8199
   228     2007  3DC0               	dw	15808


Microchip Technology PIC Macro Assembler V2.40 build 20220703182018 
Symbol Table                                                                                               Thu Apr 20 20:41:26 2023

                        LATA 0007                          PIE1 000D                          PIR1 000C  
                        Main 0027                          Init 002A              INTCON_PEIE_POSN 0006  
                       TRISA 0006                         RXReg 0043                         TXReg 0042  
                       Index 0044                        ANSELA 0008                        INTCON 000B  
                      STATUS 0003                       NCO1CLK 002E                       NCO1CON 002D  
                 ResetVector 0000                       HiTXBit 003F                       LoTXBit 0041  
                     IsrExit 0022                      NCO1INCH 002B                      NCO1INCL 002A  
                  ISR_Vector 0004                      EndTXBit 0014                    STATUS_ISR 0045  
                    MainLoop 0029           NCO1CLK_N1CKS0_POSN 0000           NCO1CLK_N1CKS1_POSN 0001  
                    SetupNCO 0035                    CheckTXBit 0010              PIE1_NCO1IE_POSN 0004  
                  IsrHandler 0007                    SecondByte 0041                     WREG_save 007E  
                   EndTXByte 001B                     EndTables 0027                     FirstByte 0040  
                 STATUS_save 007F             NCO1CON_N1EN_POSN 0007                   BeginTables 0027  
                 TXInterrupt 0007                 STATUS_C_POSN 0000               INTCON_GIE_POSN 0007  
